:0A00360000010202030304040505A3
:100D0A00E4F562F561F560F55FC203C200D202C282
:100D1A00011212B87E017F008E0A8F0B75120175BF
:100D2A001314750801750920751001751148751499
:100D3A0001751570EE54E07002C14F756300756459
:100D4A00808E658F66C374909FFF74019ECF2402C4
:100D5A00CF3400FEE48F5E8E5DF55CF55BF55AF5E7
:100D6A0059F558F557AF5EAE5DAD5CAC5BAB5AAAB0
:100D7A0059A958A857C31208E55026E564255AF51B
:100D8A0082E5633559F58374CDF0E55A2401F55AA5
:100D9A00E43559F559E43558F558E43557F557808F
:100DAA00C4E4F55AF559F558F557AF5EAE5DAD5C3A
:100DBA00AC5BAB5AAA59A958A857C31208E55033D5
:100DCA00E566255AF582E5653559F583E0FFE56460
:100DDA00255AF582E5633559F583EFF0E55A240182
:100DEA00F55AE43559F559E43558F558E43557F5C7
:100DFA005780B785630A85640B74002480FF7401E9
:100E0A0034FFFEC3E5139FF513E5129EF512C3E501
:100E1A000D9FF50DE50C9EF50CC3E50F9FF50FE54B
:100E2A000E9EF50EC3E5099FF509E5089EF508C370
:100E3A00E5119FF511E5109EF510C3E5159FF5150F
:100E4A00E5149EF514D2E843D82090E668E0440BF6
:100E5A00F090E65CE0443DF0D2AFD208121B7890E5
:100E6A00E680E054F7F0538EF8C203300105120908
:100E7A001CC2013003291200405024C203121CC0B4
:100E8A0020001690E682E030E704E020E1EF90E6E9
:100E9A0082E030E604E020E0E4121BA712004612CA
:040EAA00100080C7ED
:10091C0090E6B9E0B40C004002611790092D25E077
:10092C007321BF4139611741B861176117214561C6
:10093C001721BA21B521AB21B01200484002612326
:10094C0090E6BBE024FE602214603324FD60111499
:10095C00602224067047E50A90E6B3F0E50B803779
:10096C00E51290E6B3F0E513802DE50C90E6B3F0BC
:10097C00E50D8023E50E90E6B3F0E50F801990E6C7
:10098C00BAE0FF121BD3AA06A9077B01EA494B6008
:10099C000CEE90E6B3F0EF90E6B4F06123611C121C
:1009AC001DB46123121D266123121DCF6123121762
:1009BC00E9612312004E4002612390E6B8E0247FE7
:1009CC00601514601924027062A200E43325E0FF64
:1009DC00A202E4334F8041E490E740F0803F90E680
:1009EC00BCE0547EFF7E00E0D394807C0040047D0C
:1009FC000180027D00EC4EFEED4F2436F582740032
:100A0C003EF583E493FF3395E0FEEF24A1FFEE3433
:100A1C00E68F82F583E0540190E740F0E4A3F09078
:100A2C00E68AF090E68B7402F06123611C12005090
:100A3C004002612390E6B8E024FE601324026002B9
:100A4C00612390E6BAE0B40104C2006123611C90FA
:100A5C00E6BAE0705590E6BCE0547EFF7E00E0D331
:100A6C0094807C0040047D0180027D00EC4EFEED04
:100A7C004F2436F58274003EF583E493FF3395E002
:100A8C00FEEF24A1FFEE34E68F82F583E054FEF0F6
:100A9C0090E6BCE05480131313541FFFE0540F2F47
:100AAC0090E683F0E04420F0806D80641217FB50D8
:100ABC006690E6B8E024FE60192402705A90E6BAFB
:100ACC00E0B40104D200804F90E6BAE064026047C3
:100ADC00803E90E6BCE0547EFF7E00E0D394807CA8
:100AEC000040047D0180027D00EC4EFEED4F24366B
:100AFC00F58274003EF583E493FF3395E0FEEF241A
:100B0C00A1FFEE34E68F82F5838008120192500724
:0F0B1C0090E6A0E04401F090E6A0E04480F022D3
:03003300020006C2
:0400060053D8EF32AA
:1001000012010002000000406E130000090001020D
:020110000001EC
:0A0114000A0600020000004001008E
:100120000902270001010060000904000003FF002C
:1001300000000705820200020007050102400000DE
:0701400007058103400001E7
:100148000902270001010060000904000003FF0004
:100158000000070582024000000705010240000078
:0701680007058103400001BF
:10017000040309040C0341004E0044004F005200E8
:1001800010035500530042002000430041004D0081
:0201900000006D
:03000B000219F5E2
:1019F500C0E0C0D075D000C005C006C007C28CAF1E
:101A05008CEFFEAD8AED24D1FDE43463CD2400FFD7
:101A1500ED3E8F8AF58CD28C051DE51D7002051CE7
:0B1A2500D007D006D005D0D0D0E032B2
:1000E200C2AFE4F51CF51DC28C5389F0438901753A
:0E00F2008AD1758C63C2B9D2A9D28CD2AF224A
:091DC600C2AFAF1DAE1CD2AF226A
:0A11F600C2AFE4F51CF51DD2AF22D4
:101D06001128416E646F724C6F636B65723336389F
:0F1D1600343100023BFFFF023900000248000099
:1012B80090E600E054E7441054FDF000000090E68A
:1012C8007AE054FEF0000000121DD700000090E6FE
:1012D8000B7403F000000090E6017413F0000000A6
:1012E80090E61074A0F090E61174B0F090E61274D5
:1012F800E0F0E490E613F090E615F090E614F000C4
:10130800000090E602F000000090E609F0000000FE
:1013180000000090E6047480F00000007402F00001
:101328000000E4F000000000000090E618740DF0E2
:1013380000000090E6207402F0000000E490E6212E
:10134800F0000000D281D283D287755502F53D7F27
:0F135800031218E890010AEFF0000000020B2BBF
:100B2B00C204E4F522121CE58F52C20790010AE0C1
:100B3B0064076004E0B408151210FB7FEC7EFF1213
:100B4B001853E4F545754B4075B201813590010A98
:100B5B00E064056005E0640C7035754510754B203D
:100B6B00D208121D437F051218E8EF30E009C2814D
:100B7B0075B20BD2078007D28175B201C207900103
:100B8B000AE0640C600281ECF53B753C0781EC904C
:100B9B00010AE0640E70267F051218E8EF30E106BB
:100BAB00753B00753C07754510754B20C28175B2BE
:100BBB000A75B602C208121D60D207806D90010A39
:100BCB00E0640D70237F051218E8EF30E106753BEA
:100BDB0000753C07754510754B20C28175B20BD261
:100BEB0007D208121D43807B90010AE0B40F2275D7
:100BFB004510754B20C28175B20B75B608D207D262
:100C0B00081219D4D208121D43754706754C018181
:100C1B00EC90010AE0B41119754510754B20C28197
:100C2B0075B20BD207D2081219D4D208121D438108
:100C3B00EC90010AE06401704E7F051218E8EF306A
:100C4B00E106753B00753C0375B201D208121D43DA
:100C5B00E4FF1218E8BFC2057545108003E4F545A3
:100C6B00754B1000000090E618740CF0000000E4C7
:100C7B0090E619F000000090E61AF000000090E6F4
:100C8B001BF0000000805A90010AE0640970377570
:100C9B00B201D208121D43753B00753C07E4FF12ED
:100CAB0018E8BFC2057545108003E4F5457F0512B2
:100CBB0018E8EF30E00BC28175B20BC281D283D240
:100CCB0007754B10801B90010AE0B40B0B75B280BB
:100CDB00E4F545754B20800975B201E4F545754B7C
:100CEB00011200E2D205E4F53DF52390010AE06420
:0F0CFB00076004E0B408077FEC7EFF1218532255
:1010000020050201FA90E6A2E030E1020199121DEA
:10101000C6D3EF9463EE940040031211F6E54460EA
:101020000E90E7C07404F090E68F7401F0154490C0
:10103000010AE0B40F22E5B15407B54704E54C704E
:101040001790E7C07408F090E68F7401F0C3954CD8
:10105000F54CE5B15407F547E555B4011BE5AA2069
:10106000E016E5AA20E0047F0180027F0090E7C03F
:10107000EFF090E68F7401F0E53D30E01CE5AA202A
:10108000E0047F0180027F0090E7C0EFF090E68FE0
:101090007401F0D52303E4F53D121C27EF4E6030B8
:1010A000E4F539F53AC3E549940AE548648094804B
:1010B000400890E680E054F7F022C3E549940BE540
:1010C000486480948050330549E549702D054822D5
:1010D000E4F548F549E53A640A4539700890E68038
:1010E000E04408F022C3E53A940BE539648094802B
:0B10F0005008053AE53A70020539226D
:02004000D322C9
:02004600D322C3
:02004800D322C1
:081DCF0090E6BAE0F556D322BC
:1017E90090E740E556F0E490E68AF090E68B04F045
:0217F900D322F9
:101D260090E6BAE0F54090E6837411F07431F074F1
:0D1D360001F07421F07412F07432F0D32229
:101DB40090E740E540F0E490E68AF090E68B04F08A
:021DC400D32228
:02004E00D322BB
:02005000D322B9
:0217FB00D322F7
:1014F90090E6B8E06440707690E6BFE0FE90E6BE04
:10150900E0FDEDFFD39400EE94004062E490E68A9A
:10151900F090E68BF090E6A0E020E1F990E68BE010
:101529006F7001EE7048EF64104E7042FFFE744018
:101539002FF582E434E7F583E0FD74282FF8E66D92
:101549006002C3220FBF00010EEF64104E70DF90DE
:10155900E6B9E0B4C11190010AE06407600EE064E5
:10156900086009C2088002D208121D43D322C3228F
:1001920090E6B9E01208F6021DB002BBB10265B2E8
:1001A2000265B30338B40361B703A4B803FBB9040F
:1001B2000BBB041BBC01E5BD01FFBE05AEBF0507BD
:1001C200C10507C204C2C304E3C4050CC5058AC63F
:1001D20003E0C70547CC02EBD0031BD104A7EE0016
:1001E2000005C990E6BFE0756900F56A756A00F519
:1001F2006990E6BEE0426AE4121734A1C990E6BFF4
:10020200E0756900F56A756A00F56990E6BEE0423C
:100212006AE4AF6AAE69121790A1C990E6BBE075B5
:100222006700F568756800F56790E6BAE042689085
:10023200E6BCE0F54390E6BFE0756900F56A756AD1
:1002420000F56990E6BEE0426AE490E6B8E0AD6A85
:10025200AC69AF68AE67B4C0051213F1A1C9121838
:1002620000A1C990E6B9E090E6BBB4B205E045450D
:100272008001E0756700F568E568756800F56790CC
:10028200E6BAE0426890E6BCE0F54390E6BFE0756E
:100292006900F56A756A00F56990E6BEE0426AE4B3
:1002A20090E6B8E0AD6AAC69AF68AE67B4C005125B
:1002B2001475A1C9121667A1C990E6BCE0F5439076
:1002C200E6BFE0756900F56A756A00F56990E6BEF9
:1002D200E0426AE490E6B8E0AF6AAE69B4C00512E3
:1002E20015F7A1C9121974A1C990E6BBE0756700A0
:1002F200F568756800F56790E6BAE042681219B7CA
:1003020090E6B8E0AD6AAC69AF68AE67B4C00512FA
:1003120013F1801B12180080161219B790E6B8E08C
:10032200AF6AAE69B4C0051215F78003121974D210
:10033200081219D4A1C900000000000090E604745C
:1003420080F00000000000007402F00000000000D5
:1003520000E4F000000000000090E7C0F0A1C990A6
:10036200E6B8E064C06002A1C990E6A0E020E1F92D
:1003720090010AE090E740F090010CE49390E7418D
:10038200F090E60AE090E742F0A3E54BF0A207E422
:1003920033A3F0E4A3F090E68AF090E68B7406F0C3
:1003A200A1C990E6B8E064C06002A1C990E6A0E0ED
:1003B20020E1F990E740E541F090E620E090E74146
:1003C200F090E621E090E742F090E600E090E7430B
:1003D200F0E490E68AF090E68B7404F0A1C990E60E
:1003E200B8E064C06002A1C990E6A0E020E1F9E5AE
:1003F200B1540790E740F0A15D90E65EE04410F052
:1004020090E65CE04402F0A1C990E65EE054EFF0B1
:1004120090E65CE054FDF0A1C990E6B8E064C070DB
:100422002A90E6A0E020E1F9E54E90E740F0E54DA4
:10043200A3F0E550A3F0E54FA3F0A3E546F0E49066
:10044200E68AF090E68B7405F0A1C990E6B8E06404
:10045200406002A1C990E68AF090E68BF0E552C3B3
:1004620094085002A1C990E6A0E020E1F990E7418A
:10047200E0FE90E740E07C002400F54EEC3EF54DB6
:1004820090E743E0FE90E742E02400F550EC3EF5B1
:100492004F90E744E0F546E54E454D7004C204A195
:1004A200C9D204A1C990E680E0540DF0E04408F0FE
:1004B2007FDC7E05120FBE90E680E054F5F0A1C904
:1004C20090E6B8E064406002A1C990E68AF090E646
:1004D2008BF090E6A0E020E1F990E740E0F555A12D
:1004E200C990E6B8E064406002A1C990E68AF09043
:1004F200E68BF090E6A0E020E1F990E740E0F53DE0
:10050200752302A1C91214F9A1C990E6B8E0B4C0DA
:100512001190E6A0E020E1F9A287E43390E740F0F1
:10052200803990E6B8E064406002A1C990E68AF0A2
:1005320090E68BF090E6A0E020E1F990E740E0241D
:10054200FF9287A1C990E6B8E0B4C01B90E6A0E094
:1005520020E1F9A205E43390E740F0E490E68AF066
:1005620090E68B04F0806090E6B8E06440705890AA
:10057200E68AF090E68BF090E6A0E020E1F990E7C1
:1005820040E024FF9205803F90E6BAE0245F6011CC
:100592001460122402703090E6B8E0FF12189F80B7
:1005A20026D2088002C208121D60801BE490E68AEF
:1005B200F090E68BF090E6A0E020E1F990E740E0D1
:0905C20090010AF0120B2BC32278
:101C4F00C0E0C083C082C085C084C086758600D2C4
:101C5F00015391EF90E65D7401F0D086D084D0856A
:071C6F00D082D083D0E032E7
:10000E00C0E0C083C082C085C084C08675860053A0
:10001E0091EF90E65D7404F0D086D084D085D082C6
:05002E00D083D0E03298
:101C7600C0E0C083C082C085C084C086758600531C
:101C860091EF90E65D7402F0D086D084D085D08244
:051C9600D083D0E03214
:10192F00C0E0C083C082C085C084C0867586008534
:10193F00100C85110D850D82850C83A37402F08523
:10194F00080E85090F850F82850E83A37407F05348
:10195F0091EF90E65D7410F0D086D084D085D08260
:05196F00D083D0E0323E
:101C9B00C0E0C083C082C085C084C08675860053F7
:101CAB0091EF90E65D7408F0D086D084D085D08219
:051CBB00D083D0E032EF
:1016D400C0E0C083C082C085C084C0867586009087
:1016E400E680E030E73485080C85090D850D828598
:1016F4000C83A37402F085100E85110F850F82856B
:101704000E83A37407F000000090E6207402F0003A
:10171400000090E621E4F00000005391EF90E65DB4
:101724007420F0D086D084D085D082D083D0E032AB
:01000A0032C3
:01004200328B
:01004A003283
:01005200327B
:010FFF0032BF
:0117FD0032B9
:0117FE0032B8
:0117FF0032B7
:011DE60032CA
:011DE70032C9
:011DE80032C8
:011DE90032C7
:011DEA0032C6
:011DEB0032C5
:011DEC0032C4
:011DED0032C3
:011DEE0032C2
:011DEF0032C1
:011DF00032C0
:011DF10032BF
:011DF20032BE
:011DF30032BD
:011DF40032BC
:011DF50032BB
:011DF60032BA
:011DF70032B9
:011DF80032B8
:011DF90032B7
:011DFA0032B6
:011DFB0032B5
:011DFC0032B4
:011DFD0032B3
:011DFE0032B2
:011DFF0032B1
:011E000032AF
:011E010032AE
:1018E8008F6BE490E000F0A3E56BF07AE07B007D7D
:1018F800027F51121D987AE07B027D017F51121DF3
:101908007CE56BB4031B90E002E0FFC39401400642
:10191800EFD39411400B900108746EF0E490E0024C
:07192800F090E002E0FF2255
:101CE500E490E000F07AE07B007D017F70121D98A2
:101CF5007AE07B017D017F70121D7C90E001E0FFA1
:011D050022BB
:1013F1008E6B8F6C8C6D8D6EE56E456D607590E6B4
:10140100A0E020E1F9C3E56E9440E56D9400500839
:10141100856D6F856E708006756F00757040E4FF95
:10142100FEC3EF9570EE956F501474402FF582E472
:1014310034E7F58374CDF00FBF00010E80E3AD708A
:101441007AE779407F40AB07AF6CAE6B121AA2E42A
:1014510090E68AF090E68BE570F0256CF56CE56F0F
:10146100356BF56BC3E56E9570F56EE56D956FF5B2
:041471006D808522E3
:101800008E6B8F6C8C6D8D6EE56E456D6044E490D3
:10181000E68AF090E68BF090E6A0E020E1F990E611
:101820008BE0756F00F570FD7AE779407F40AB077C
:10183000AF6CAE6B121A69E570256CF56CE56F350F
:101840006BF56BC3E56E9570F56EE56D956FF56D97
:0318500080B6223D
:101475008E6F8F708C718D72E5724571607590E617
:10148500A0E020E1F9C3E5729440E57194005008AD
:101495008571738572748006757300757440E4FFF9
:1014A500FEC3EF9574EE9573501474402FF582E4E6
:1014B50034E7F58374CDF00FBF00010E80E3AD7402
:1014C5007AE779407F40AB07AF70AE6F121BFEE441
:1014D50090E68AF090E68BE574F02570F570E5737B
:1014E500356FF56FC3E5729574F572E5719573F512
:0414F500718085225B
:101667008E6B8F6C8C6D8D6E90E6BCE0F54390E6CB
:10167700BFE0756D00F56E756E00F56D90E6BEE026
:10168700426EE56E456D6044E490E68AF090E68B25
:10169700F090E6A0E020E1F990E68BE0756F00F5A9
:1016A70070FD7AE779407F40AB07AF6CAE6B1213E2
:1016B70067E570256CF56CE56F356BF56BC3E56E0B
:0D16C7009570F56EE56D956FF56D80B6229E
:1015F7008E6B8F6CE56C456B606590E6A0E020E133
:10160700F9C3E56C9440E56B94005008856B6D85D4
:101617006C6E8006756D00756E40E4FFFEC3EF9536
:101627006EEE956D501474402FF582E434E7F58320
:1016370074CDF00FBF00010E80E3AD6E7AE77B40FB
:10164700AF43121D7CE490E68AF090E68BE56EF0DE
:10165700C3E56C956EF56CE56B956DF56B80952222
:101974008E6B8F6CE56C456B6032E490E68AF09078
:10198400E68BF090E6A0E020E1F990E68BE0756D3F
:1019940000F56EFD7AE77B40AF43121D98C3E56CFA
:1019A400956EF56CE56B956DF56B80C890E678E007
:0319B400F54122D8
:1010FB00D20890E000741FF0A3E4F0A3744DF0A3AA
:10110B00747DF0E4A3F0A304F0A304F0A304F0A314
:10111B0004F0A304F0A304F0A304F0E4A3F0A3747D
:10112B0080F0E4A3F0A3F0A3F0A37408F0A314F0F1
:10113B00A3745BF07AE07B127D027F52121D987ACA
:10114B00E07B147D027F52121D7C90E014E0FF12B5
:10115B001A3090E0127401F0A37438F07AE07B122D
:10116B007D027F2A121D9890E004E0FF90E00DE0D5
:10117B00FE90E00CE04EFD7C001215828208920876
:10118B0090E005E0FF90E001E0FCA3E0FD1215828A
:10119B008208920890E006E090E00312157D820829
:1011AB00920890E007E0FF90E010E0FCA3E0FD90D8
:1011BB00E00EE04CFCA3E04DFD1215828208920874
:1011CB0090E0081215798208920890E009121579BF
:1011DB008208920890E00A1215798208920890E032
:0B11EB000B12157982089208A208225E
:09157900E090E000FFE0FD7C00C1
:10158200EFD394075008ED94FFEC94074002C32276
:10159200EF25E0FBE433FAEDAE047805C333CE3336
:1015A200CED8F9FFEE4AFEEF4BFDAC06E4FBFAF9AA
:1015B200EB25E0FBEA33FAEDAE04A801088005CE84
:1015C200C313CE13D8F95401FFEF420309B910E057
:1015D200AF02AE0390E01574C8F0A3EFF0A3EEF0F3
:1015E2007AE07B157D037F70121D9800000090E663
:0515F20078E0A2E122F7
:101A30008F42E54230E00E7551D375277B75261431
:101A4000752504800C7551D37527527526B87525F8
:101A50001E75244290E01574C9F0A3E542F07AE0C7
:091A60007B157D027F70021D98C8
:101367008E718F728D738A748B75E573607BAF4B4B
:10137700E572FDE54B145DFEC3EF9EFFE573C39F6A
:10138700500585737880028F78E57190E000F0A3AF
:10139700EDF07576E0757702AF78EF60250575E5B6
:1013A70075AC747002057414F5828C83E0FE0577C2
:1013B700E577AC767002057614F5828C83EEF01F24
:1013C70080D8E5782402FD7AE07B00AF43121D98B0
:1013D700AF43121ADAE5782572F572E43571F571C3
:0A13E700C3E5739578F57380812249
:101BFE008E758F768D778A788B79E57590E000F00B
:101C0E00EFA3F07AE07B007D02AF43121D98AB7913
:091C1E00AA78AD77AF43021D7CEA
:101A69008A718B72EF90E000F08D73E57360290540
:101A790072E572AE717002057114F5828E83E09081
:101A8900E001F07AE07B007D02AF43121D9890E0FF
:091A990000E004F0157380D32273
:101AA2008A718B72EF90E000F08D73E57360287A93
:101AB200E07B007D01AF43121D980572E572AA71A9
:101AC2007002057114FB7D01AF43121D7C90E00092
:081AD200E004F0157380D4223A
:1018530090E0007440F0AD07AC06EC1207CE7B536A
:101863007A05795B78C01206C37B5C7A8F79197825
:10187300431205D212080790E001EFF07AE07B00F3
:101883007D027F4C121D9890E00074B0F0A37401A8
:0C189300F07AE07B007D027F70021D985F
:1017340090E6A0E020E1F9756B00756C03E4FF7E90
:101744000390E74074CDF0A3DEFC75434C7AE7794F
:10175400407F40AB077D017F407E00121AA27AE7EA
:1017640079407F40AB077D017F407E00121AA27A48
:10177400E779417EE77F41AB077D027F4D121D7CF7
:0C178400E490E68AF090E68BE56CF02221
:10179000EF4E605490E6A0E020E1F9C3EF9440EEF4
:1017A000940050068E6B8F6C8006756B00756C40D4
:1017B000E4FDFCC3ED956CEC956B5016ED04FB74E9
:1017C000402DF582E434E7F583EBF00DBD00010C0C
:1017D00080E1E490E68AF090E68BE56CF0C3EF954B
:0917E0006CFFEE956BFE80A8225F
:10189F00754351756B0F756CE0756D00756E02BFFA
:1018AF00C00BAD6EAC6DAF6CAE6B021475C208128F
:1018BF001D43E490E68AF090E68BF090E6A0E020DE
:1018CF00E1F9AD6E7AE779407F40AB07AF6CAE6B55
:0918DF00121367D208121D432206
:101C2700E53CF47003E53BF4601974017E00A83CC1
:101C3700088005C333CE33CED8F9FFAD80E4FEEF7D
:081C47005DFF227E007F0122F7
:101D600090E670E03008094401F0D28843A80122CF
:0C1D700054FEF0C288E4F54453A8FE22A3
:101D430090010AE0B40E0B30080443B1022253B1F0
:0D1D5300FD22300804438001225380FE224F
:1019B70090E6BCE0F54390E6BFE0756900F56A750F
:0D19C7006A00F56990E6BEE0426AE4C208DD
:1019D40020080FD281C28390010AE0B40F1243B1F0
:1019E400082290010AE0B40F0353B1F7D283C281F5
:0119F40022D0
:03004300021200A6
:0300530002120096
:10120000021C4F00021C760002000E00021C9B0014
:1012100002192F000216D40002000A000200420048
:1012200002004A0002005200020FFF000217FD00F8
:101230000217FE000217FF00021DE600021DE70074
:10124000021DE80002004200021DE900021DEA0042
:10125000021DEB00021DEC00021DED00021DEE0060
:10126000021DEF00020042000200420002004200A4
:10127000021DF000021DF100021DF200021DF3002C
:10128000021DF400021DF500021DF600021DF7000C
:10129000021DF800021DF900021DFA00021DFB00EC
:1012A000021DFC00021DFD00021DFE00021DFF00CC
:0812B000021E0000021E0100F5
:101BA70090E682E030E004E020E60B90E682E03049
:101BB700E119E030E71590E680E04401F07F147EFC
:0C1BC70000120FBE90E680E054FEF022F9
:101CC00090E682E044C0F090E681F0438701000096
:041CD00000000022EE
:101B780030080990E680E0440AF0800790E680E0AB
:101B88004408F07FDC7E05120FBE90E65D74FFF01E
:0F1B980090E65FF05391EF90E680E054F7F02273
:100FBE008E6B8F6C90E600E05418700DE56BC313CA
:100FCE00F56BE56C13F56C801590E600E05418FF98
:100FDE00BF100BE56C25E0F56CE56B33F56BE56C3E
:100FEE00156CAE6B7002156B4E6005121CD480EE44
:010FFE0022D0
:081DD700E4F51BD2E9D2AF22B2
:101ADA00AD0790E678E020E6F9C2E990E678E044BE
:101AEA0080F0ED25E090E679F090E678E030E0F9D4
:101AFA0090E678E04440F090E678E020E6F990E657
:081B0A0078E030E1D6D2E922B7
:101B4600AC0790E678E020E6F9E51B702390E6788E
:101B5600E04480F0EC25E090E679F08D16AF03A91D
:101B6600077517018A188919E4F51A751B01D3221E
:021B7600C32288
:101B1200AC0790E678E020E6F9E51B702590E678C0
:101B2200E04480F0EC25E0440190E679F08D16AFB8
:101B320003A9077517018A188919E4F51A751B0399
:041B4200D322C322C5
:03004B00020EAEF4
:100EAE00C0E0C083C082C085C084C086758600C085
:100EBE00D075D000C000C001C002C003C006C0077C
:100ECE0090E678E030E20A751B06E04440F0020F2F
:100EDE00A090E678E020E110E51B6402600A751B25
:100EEE0007E04440F0020FA0E51B24FE605F146093
:100EFE003624FE7003020F9124FC7003020F9D2412
:100F0E00086003020FA0AB17AA18A919AF1A051A89
:100F1E008F8275830012088890E679F0E51A6516BF
:100F2E007070751B05806B90E679E0AB17AA18A957
:100F3E0019AE1A8E827583001208B5751B02E5165E
:100F4E006401704E90E678E04420F08045E516246A
:100F5E00FEB51A0790E678E04420F0E51614B51AAF
:100F6E000A90E678E04440F0751B0090E679E0AB1D
:100F7E0017AA18A919AE1A8E827583001208B50524
:100F8E001A800F90E678E04440F0751B00800375E0
:100F9E001B005391DFD007D006D003D002D001D072
:100FAE0000D0D0D086D084D085D082D083D0E0320D
:021BD300A90760
:101BD500AE14AF158F828E83A3E064037017AD0139
:101BE50019ED7001228F828E83E07C002FFDEC3E83
:081BF500FEAF0580DFE4FEFFF6
:011BFD0022C5
:101D7C00121B12E51B24FA600E146006240770F384
:0C1D8C00D322E4F51BD322E4F51BD32284
:101D9800121B46E51B24FA600E146006240770F334
:0C1DA800D322E4F51BD322E4F51BD32268
:101CD4007400F58690FDA57C05A3E582458370F923
:011CE40022DD
:03000300021DDFFC
:071DDF007544025388FD3238
:1005CB00020873E86480F8E933E83360110460F0E3
:1005DB00ED33EC337009E8FCE9FDEAFEEBFF220496
:1005EB0060DED3EB9FEA9EE99DE8C2E78CF0C2F791
:1005FB0095F0400CE8CCF8E9CDF9EACEFAEBCFFB5D
:10060B0012083E85D0F05804700320D5B3E804706F
:10061B00075002B2D502087D92D5EC0460F7E4CC0A
:10062B00C0E0C398F8603B94186008400DD0E0FB25
:10063B00020855E4FBFAC9FC8028E830E406E4C95B
:10064B00FBE4CAFCE830E305E4C9CACBFCE8540779
:10065B006010F8C3E913F9EA13FAEB13FBEC13FC84
:10066B00D8F130F52FC3E49CFCEF9BFFEE9AFEED27
:10067B0099FDD0E0FBEF4E4D4C701222DB030208CC
:10068B007AEC2CFCEF33FFEE33FEED33FDED30E770
:10069B00EB020855EF2BFFEE3AFEED39FDD0E0FBF8
:1006AB0050130BBB000302087DED13FDEE13FEEFA1
:0806BB0013FFEC13FC020855CB
:1006C300EC4D6011E8497017ED33EC3304600DE431
:1006D300FCFFFEFD22E933E8330470F802087312CD
:1006E300083E58046009E4CC2481500628500902CE
:1006F300087D28400302087AC0E0EB4A7044B980C1
:1007030006D0E0FB020869EF4E701CBD8008EBFFCA
:10071300EAFEE9FD80EBE98DF0A4FEE5F00207AC0B
:10072300E9CDF9EAFEEBFFEF89F0A4FCE5F0CE8911
:10073300F0A42EFFE435F0CD89F0A42DFEE435F0CE
:100743008067EF4E7005BD80D780C3EF8BF0A4ACFC
:10075300F0EE8BF0A42CFCE435F0F8EF8AF0A42C37
:10076300E5F038FCE433CB8DF0A42CFCE5F03BF84A
:10077300EE8AF0A42CFCE5F038F8E433CF89F0A43A
:100783002CFCE5F038CF3400CE89F0A42FFFE5F040
:100793003EFEE433C98DF0A42EFEE5F039CD8AF098
:1007A300A42FFFE5F03EFEE43DFD33D0E0FB500710
:1007B3000BBB000F02087DEC2CFCEF33FFEE33FE86
:0607C300ED33FD020855B4
:1007C90075F020800E75F010800575F0087D007EAB
:1007D900007F003392D530D5031208D7EC3340108F
:1007E900EF33FFEE33FEED33FDEC33FCD5F0ED22B4
:0E07F900E5F0247EA2D513CC92E7CDCEFF22F0
:10080700EDD2E7CD33EC3392D524814006E4FFFEE9
:10081700FDFC22FCE4CFCECDCC24E0501174FF8048
:10082700EDC3CC13CCCD13CDCE13CECF13CF0470E5
:07083700F030D5DE0208D706
:10083E00E9D2E7C933E833F892D5EDD2E7CD33EC00
:07084E0033FC5002B2D52279
:10085500EC30E7100FBF000C0EBE00080DBD000404
:100865000BEB6014A2D5EB13FCED92E7FD2274FFB0
:10087500FCFDFEFF22E480F8A2D574FF13FC7D8009
:03088500E480EF1D
:03000000020056A5
:0C005600787FE4F6D8FD75817902009DEA
:10088800BB010CE58229F582E5833AF583E0225025
:1008980006E92582F8E622BBFE06E92582F8E2226F
:0D08A800E58229F582E5833AF583E4932289
:1008B500F8BB010DE58229F582E5833AF583E8F079
:1008C500225006E92582C8F622BBFE05E92582C825
:0208D500F2220D
:0E08D700C3E49FFFE49EFEE49DFDE49CFC2232
:1008E500EB9FF5F0EA9E42F0E99D42F0E89C45F069
:0108F50022E0
:1008F600D083D082F8E4937012740193700DA3A391
:1009060093F8740193F5828883E4737402936860A4
:06091600EFA3A3A380DFA4
:10006200020D0AE493A3F8E493A34003F68001F29D
:1000720008DFF48029E493A3F85407240CC8C3339F
:10008200C4540F4420C8834004F456800146F6DF6E
:10009200E4800B0102040810204080901D06E47EDB
:1000A200019360BCA3FF543F30E509541FFEE49363
:1000B200A360010ECF54C025E060A840B8E493A32A
:1000C200FAE493A3F8E493A3C8C582C8CAC583CA55
:1000D200F0A3C8C582C8CAC583CADFE9DEE780BE0D
:011D250000BD
:00000001FF
